:0400000006EF00F017
:0C00080001ED04F014EEB7F09EEF0DF0D7
:1008000000000600E9CF55F0EACF56F0E1CF57F0EF
:10081000E2CF58F0D9CF59F0DACF5AF0F3CF5BF0EE
:10082000F4CF5CF016EE5CF001C0E6FF02C0E6FF1C
:1008300005C0E6FF37C0E6FF38C0E6FFF29EF2A42F
:1008400024EF04F026EF04F043EF05F0F2944CECB3
:100850000CF022EEB5F000EE03F0DE50E926DD509C
:10086000EA22EE04D8A437EF04F039EF04F0A3EF46
:1008700004F022EEB5F000EE06F0DE50E926DD5081
:10088000EA22E0CFEFFF22EEB5F000EE08F0DE50F6
:10089000E926DD50EA22D8CFEFFF22EEB5F000EED8
:1008A00007F0DE50E926DD50EA22E8CFEFFF22EE26
:1008B000B5F000EE69F0DE50E926DD50EA22EF6A7D
:1008C00092EF04F022EEB5F000EE69F0DE50E9267A
:1008D000DD50EA22EF50030DF3CF4FF0F4CF50F08C
:1008E00022EEB5F0DECF51F0DDCF52F04F50512463
:1008F000536E50505220546E090E5324D96E000E80
:100900005420DA6EFDCFDEFFFECFDEFFFFCFDEFF2D
:1009100022EEB5F000EE69F0DE50E926DD50EA2265
:10092000EF2A0600FC50D8A498EF04F09AEF04F0E8
:1009300062EF04F022EEB5F000EE03F0DE50E9269F
:10094000DD50EA22EF6A66EC0EF022EEB5F000EE22
:1009500003F0DE50E926DD50EA22EF50D8A4B3EFD1
:1009600004F0B5EF04F043EF05F022EEB5F000EE31
:1009700006F0DE50E926DD50EA22EF50E06E22EE6E
:10098000B5F000EE08F0DE50E926DD50EA22EF5027
:10099000D86E22EEB5F000EE07F0DE50E926DD500D
:1009A000EA22EF504F6E4F50FC6A22EEB5F000EE97
:1009B00069F0DE50E926DD50EA22EF50D8A4E3EFDB
:1009C00004F0E5EF04F0F9EF04F0050022EEB5F0D5
:1009D00000EE01F0DE50E926DD50EA22EECF4FF0C6
:1009E000EDCF50F04FC0FDFF50C0FEFFFF6A39EF62
:1009F00005F0050022EEB5F000EE69F0DE50E926C4
:100A0000DD50EA22EF0622EEB5F000EE69F0DE508E
:100A1000E926DD50EA22EF50030DF3CF4FF0F4CF7B
:100A200050F022EEB5F0DECF51F0DDCF52F04F5056
:100A30005124536E50505220546E090E5324D96ED7
:100A4000000E5420DA6EDECFFDFFDECFFEFFDDCFDD
:100A5000FFFF22EEB5F000EE69F0DE50E926DD5032
:100A6000EA22EF50D8A437EF05F039EF05F0F9EF9F
:100A700004F022EEB5F000EE03F0DE50E926DD5082
:100A8000EA22010EEF6EF28EE552E5CF38F0E5CFA7
:100A900037F0E5CF05F0E5CF02F0E5CF01F05CC01F
:100AA000F4FF5BC0F3FF5AC0DAFF59C0D9FF58C04A
:100AB000E2FF57C0E1FF56C0EAFF55C0E9FF110051
:100AC000F29E1550D96EDA6ADE06000EDD5A155018
:100AD000D96EDA6A010EDBBE72EF05F070EF05F039
:100AE000B9EF06F022EEB5F01550E96EEA6A0C0E89
:100AF000E926EF50020D1550F324E96EEA6A020E62
:100B0000E926DECFEEFFDDCFEDFF1550D96EDA6AB4
:100B10000C0ED9261550E96EEA6A0C0EE926EF5044
:100B2000386E010E38241D6E1E6A000E1E22206AC9
:100B3000050E1F6E04EC0BF00150DF6E22EEB5F0D7
:100B400000EE03F0DE50E926DD50EA22EE04D8A4E0
:100B5000ACEF05F0AEEF05F019EF06F022EEB5F0C0
:100B600000EE06F0DE50E926DD50EA22E0CFEFFF8E
:100B700022EEB5F000EE08F0DE50E926DD50EA2264
:100B8000D8CFEFFF22EEB5F000EE07F0DE50E926F9
:100B9000DD50EA22E8CFEFFF22EEB5F000EE69F07B
:100BA000DE50E926DD50EA22EF6A07EF06F022EE7A
:100BB000B5F000EE69F0DE50E926DD50EA22EF5094
:100BC000030DF3CF37F0F4CF38F022EEB5F0DECFDF
:100BD00035F0DDCF36F037503524336E38503620BF
:100BE000346E090E3324D96E000E3420DA6EFDCF38
:100BF000DEFFFECFDEFFFFCFDEFF22EEB5F000EE20
:100C000069F0DE50E926DD50EA22EF2A0600FC50AA
:100C1000D8A40DEF06F00FEF06F0D7EF05F022EEA7
:100C2000B5F000EE03F0DE50E926DD50EA22030EB7
:100C3000EF6E66EC0EF022EEB5F000EE03F0DE5043
:100C4000E926DD50EA22EF50D8A429EF06F02BEF79
:100C500006F0B9EF06F022EEB5F000EE06F0DE5039
:100C6000E926DD50EA22EF50E06E22EEB5F000EE0C
:100C700008F0DE50E926DD50EA22EF50D86E22EE71
:100C8000B5F000EE07F0DE50E926DD50EA22EF5025
:100C9000386E3850FC6A22EEB5F000EE69F0DE5096
:100CA000E926DD50EA22EF50D8A459EF06F05BEFB9
:100CB00006F06FEF06F0050022EEB5F000EE01F051
:100CC000DE50E926DD50EA22EECF37F0EDCF38F0E6
:100CD00037C0FDFF38C0FEFFFF6AAFEF06F005002A
:100CE00022EEB5F000EE69F0DE50E926DD50EA2292
:100CF000EF0622EEB5F000EE69F0DE50E926DD5099
:100D0000EA22EF50030DF3CF37F0F4CF38F022EEA4
:100D1000B5F0DECF35F0DDCF36F037503524336E09
:100D200038503620346E090E3324D96E000E34202C
:100D3000DA6EDECFFDFFDECFFEFFDDCFFFFF22EE5E
:100D4000B5F000EE69F0DE50E926DD50EA22EF5002
:100D5000D8A4ADEF06F0AFEF06F06FEF06F022EE8D
:100D6000B5F000EE03F0DE50E926DD50EA22010E78
:100D7000EF6EF28E1200F29E22EEB5F000EE05F05C
:100D8000DE50E926DD50EA220DC0EFFF22EEB5F07D
:100D900000EE03F0DE50E926DD50EA22EE04D8A48E
:100DA000D4EF06F0D6EF06F041EF07F022EEB5F0F3
:100DB00000EE06F0DE50E926DD50EA22E0CFEFFF3C
:100DC00022EEB5F000EE08F0DE50E926DD50EA2212
:100DD000D8CFEFFF22EEB5F000EE07F0DE50E926A7
:100DE000DD50EA22E8CFEFFF22EEB5F000EE69F029
:100DF000DE50E926DD50EA22EF6A2FEF07F022EEFF
:100E0000B5F000EE69F0DE50E926DD50EA22EF5041
:100E1000030DF3CF37F0F4CF38F022EEB5F0DECF8C
:100E200035F0DDCF36F037503524336E385036206C
:100E3000346E090E3324D96E000E3420DA6EFDCFE5
:100E4000DEFFFECFDEFFFFCFDEFF22EEB5F000EECD
:100E500069F0DE50E926DD50EA22EF2A0600FC5058
:100E6000D8A435EF07F037EF07F0FFEF06F022EEDA
:100E7000B5F000EE03F0DE50E926DD50EA22020E66
:100E8000EF6E66EC0EF022EEB5F000EE03F0DE50F1
:100E9000E926DD50EA22EF50D8A451EF07F053EFD6
:100EA00007F0E1EF07F022EEB5F000EE06F0DE50BD
:100EB000E926DD50EA22EF50E06E22EEB5F000EEBA
:100EC00008F0DE50E926DD50EA22EF50D86E22EE1F
:100ED000B5F000EE07F0DE50E926DD50EA22EF50D3
:100EE000386E3850FC6A22EEB5F000EE69F0DE5044
:100EF000E926DD50EA22EF50D8A481EF07F083EF16
:100F000007F097EF07F0050022EEB5F000EE01F0D4
:100F1000DE50E926DD50EA22EECF37F0EDCF38F093
:100F200037C0FDFF38C0FEFFFF6AD7EF07F00500AE
:100F300022EEB5F000EE69F0DE50E926DD50EA223F
:100F4000EF0622EEB5F000EE69F0DE50E926DD5046
:100F5000EA22EF50030DF3CF37F0F4CF38F022EE52
:100F6000B5F0DECF35F0DDCF36F037503524336EB7
:100F700038503620346E090E3324D96E000E3420DA
:100F8000DA6EDECFFDFFDECFFEFFDDCFFFFF22EE0C
:100F9000B5F000EE69F0DE50E926DD50EA22EF50B0
:100FA000D8A4D5EF07F0D7EF07F097EF07F022EEC0
:100FB000B5F000EE03F0DE50E926DD50EA22010E26
:100FC000EF6EF28E1200E652E652E6527E0E256475
:100FD000ECEF07F0EEEF07F0F4EF07F0000E016E14
:100FE000000E026EA6EF08F0020E016EFE0E01C0AA
:100FF000E3FFB70E016EFD0E01C0E3FFFD0EE3CF70
:1010000005F0010FE3CF06F005C0D9FF06C0DAFFF7
:10101000DF50386EFF0E38C0E3FFFF0EE124D96EBB
:10102000FF0EE220DA6EDF507F0B386E3804076E59
:10103000FE0E06C0E3FFFD0E05C0E3FFFF0EE3500A
:10104000D8A425EF08F027EF08F029EF08F0EEEF1D
:1010500007F0FF0EE124D96EFF0EE220DA6EDFBE4C
:1010600034EF08F036EF08F04FEF08F02550075C3A
:10107000D8B03DEF08F03FEF08F064EF08F0FD0E48
:10108000E3CF2DF0010FE3CF2EF0AAEC08F00150D2
:10109000D8A44DEF08F04FEF08F0FEEF07F0FF0E79
:1010A000E124D96EFF0EE220DA6EDF507F0B010DD6
:1010B000FD0EE124D96EFF0EE220DA6EF350DE263B
:1010C000F450DD22FEEF07F0FD0EE3CF05F0010F37
:1010D000E3CF06F007502518D8A471EF08F073EF9E
:1010E00008F080EF08F005C0D9FF06C0DAFFDF8EF8
:1010F000010E0524016E000E0620026EA6EF08F018
:101100002550810F05C0D9FF06C0DAFFDF6E05C08C
:1011100037F006C038F0010E3724096E000E382073
:101120000A6E010E2524376E386A000E38223750B9
:101130000526385006222550075C05C0D9FF06C099
:10114000DAFFDF6E09C001F00AC002F0E552E55295
:10115000E5521200E652E652E6522DC0D9FF2EC0EB
:10116000DAFFDF50386E38502D24056E000E2E2029
:10117000066E2DC0D9FF2EC0DAFFDF50386EFE0E8E
:1011800038C0E3FF05C0D9FF06C0DAFFDF50386E74
:10119000FD0E38C0E3FFFD0EE350D8A4D2EF08F0F7
:1011A000D4EF08F0D8EF08F0000E016E40EF09F020
:1011B000FE0EE124D96EFF0EE220DA6EDFBEE3EF11
:1011C00008F0E5EF08F0D4EF08F0FD0EE124D96E49
:1011D000FF0EE220DA6EDFAEF0EF08F0F2EF08F07B
:1011E000F4EF08F0D4EF08F0FE0EE124D96EFF0E04
:1011F000E220DA6EDF507F0B7F0AD8A402EF09F0FD
:1012000004EF09F006EF09F0D4EF08F0FD0EE3CF8C
:1012100038F0FE0EE3503824376EFF0E37C0E3FF80
:10122000FF0EE3CF01F07F0E016419EF09F01BEF11
:1012300009F037EF09F02DC0D9FF2EC0DAFF7F0E7D
:10124000DF6E7F0E2D26000E2E22FD0EE350010DC7
:10125000F3500526F45006222D50055C2DC0D9FF11
:101260002EC0DAFFDF6E7F0E016E40EF09F02DC059
:10127000D9FF2EC0DAFFFF0EE3CFDFFFDF50016E94
:10128000E552E552E5521200060EE126000EE2227A
:10129000810E0D6E040E0E6EFA0EE124376EFF0EF7
:1012A000E220386E37C00FF038C010F031EC0AF091
:1012B000600E0D6E020E0E6EFE0EE124376EFF0EF6
:1012C000E220386E37C00FF038C010F031EC0AF071
:1012D000FF0EE3BE7BEF09F0FF0EE3500AE1FE0EC6
:1012E000E3CF01F0C80E015ED8B079EF09F07BEFD3
:1012F00009F089EF09F03A6A320E396E3C6A320E13
:101300003B6E3E6A320E3D6E406A320E3F6EADEF6E
:1013100009F0FC0EE124D96EFF0EE220DA6EDECF7A
:1013200037F0DDCF38F0D89038323732D8903832B5
:10133000373237C005F038C006F005C039F006C0B6
:101340003AF005C03BF006C03CF005C03DF006C0D9
:101350003EF005C03FF006C040F0410E0D6E7EEC41
:101360000EF0410E0D6E79EC0EF0640E0D6EBBECBE
:1013700006F048EF09F0FA0EE126FF0EE222120015
:10138000E652E652E652FF0E10C0E3FFFE0E0FC01B
:10139000E3FF056A24EF0AF0F29EFD0E05C0E3FFAD
:1013A0000D50130F156E60EC05F0FD0EE3CF38F015
:1013B000FE0EE3CF35F0010FE3CF36F03850352481
:1013C000D96E000E3620DA6E0D50E96EEA6A010E13
:1013D000E926EF50386E0D50E96EEA6A020EE926F2
:1013E000EECF35F0EDCF36F038503524E96E000EF3
:1013F0003620EA6EDFCFEFFF0D50D96EDA6A010EAC
:10140000D9260D50E96EEA6A010EE926EF50386ED2
:10141000010E38241D6E1E6A000E1E220D50E96E4C
:10142000EA6A040EE926EF501F6E206A04EC0BF006
:101430000150DF6E0D50050F156EBEEC0BF0F28EF5
:10144000FD0EE3CF05F0052A0E50055CD8A02BEF6A
:101450000AF02DEF0AF0CCEF09F0E552E552E55223
:101460001200E652E652E652FF0E10C0E3FFFE0EF7
:101470000FC0E3FF056A8FEF0AF0F29EFD0E05C074
:10148000E3FF0D50050F156E60EC05F00D50D96EA1
:10149000DA6ADF50386E0D50D96EDA6A020ED9263C
:1014A000DECF35F0DDCF36F038503524D96E000E62
:1014B0003620DA6EFD0EE3CF38F0FE0EE3CF35F0C6
:1014C000010FE3CF36F038503524E96E000E362098
:1014D000EA6EDFCFEFFF0D50D96EDA6A0D50E96E7C
:1014E000EA6AEF50386E010E38241D6E1E6A000E37
:1014F0001E220D50E96EEA6A040EE926EF501F6EB7
:10150000206A04EC0BF00150DF6E0D50130F156EC6
:10151000BEEC0BF0F28EFD0EE3CF05F0052A0E5067
:10152000055CD8A096EF0AF098EF0AF03DEF0AF0BC
:10153000E552E552E5521200E652E652E652000E3E
:10154000016EFE0E01C0E3FFA20E016EFD0E01C092
:10155000E3FFFF0EE36A010E056EEFEF0AF00550A0
:101560006A0DA50EF324D96E000EF420DA6EDF505A
:10157000D8A4BDEF0AF0BFEF0AF0EEEF0AF0055075
:101580006A0DA60EF324D96E000EF420DA6EFF0E5B
:10159000E3CF01F0DE50015CD8B0D1EF0AF0D3EF19
:1015A0000AF0EEEF0AF005506A0DA60EF324D96E8C
:1015B000000EF420DA6EDF50386EFF0E38C0E3FF05
:1015C00005506A0DA20EF324376E000EF420386E1B
:1015D000FE0E38C0E3FFFD0E37C0E3FF052A22EE02
:1015E000B4F0DE50055CD8A0F8EF0AF0FAEF0AF08C
:1015F000AFEF0AF0FD0EE3CF01F0010FE3CF02F0F1
:10160000E552E552E5521200E652056A1EBE0DEFA4
:101610000BF00BEF0BF013EF0BF01D6C1E1ED8B090
:101620001E2A010E056E20BE1AEF0BF018EF0BF00C
:101630001EEF0BF01F6C201ED8B0202AFF0E05C035
:10164000E3FF1F502010D8B428EF0BF02AEF0BF067
:101650004EEF0BF0010E056E32EF0BF0D8901F36F7
:101660002036052A20AE37EF0BF039EF0BF02EEFC6
:101670000BF01F501D5C20501E58D8A042EF0BF0FD
:1016800044EF0BF048EF0BF01F501D5E20501E5A28
:10169000D89020321F32052E39EF0BF0FF0EE3CF2A
:1016A00005F00550D8B457EF0BF059EF0BF05DEF94
:1016B0000BF01D6C1E1ED8B01E2A1DC001F01EC0EE
:1016C00002F0E55212006A0EE126000EE222960EAA
:1016D00015C0E3FF970EE124D96EFF0EE220DA6E0B
:1016E00017C0DEFF18C0DDFF9A0EE124D96EFF0E91
:1016F000E220DA6E16C0DFFF990EE124D96EFF0EEC
:10170000E220DA6EDF6A9C0EE124D96EFF0EE22041
:10171000DA6EDF6A9E0EE124D96EFF0EE220DA6EE9
:10172000DF6A9D0EE124D96EFF0EE220DA6EDF6AD9
:10173000FF0EE124D96EFF0EE220DA6EDF6A960E0C
:10174000E124D96EFF0EE220DA6E02EEB4F0EF5023
:101750006A0DA20EF324E96E000EF420EA6E690E03
:10176000DBCFEBFFE806FCE2B4C2E8FF010FE8CFF5
:10177000B4F2960EE126FF0EE2221200F29E155000
:10178000D96EDA6ADE2A000EDD221550D96EDA6AC9
:10179000010EDBBED7EF0BF0010EDB5006E1DE04DD
:1017A000D8B0D5EF0BF0D7EF0BF004EF0CF01550DD
:1017B000D96EDA6A0D0ED926DF50020D1550F324CA
:1017C000D96EDA6A020ED92600EE03F0DE50E92661
:1017D000DD50EA22EF6A1550D96EDA6A0D0ED9266D
:1017E0001550E96EEA6A0D0EE926EF50386E010ECB
:1017F00038241D6E1E6A000E1E22206A050E1F6E02
:1018000004EC0BF00150DF6EF28E1200E652E6524D
:10181000020E016EFF0E01C0E3FFB70E016EFE0E59
:1018200001C0E3FF010E066E0568FE0EE3CF15F062
:10183000010FE3CF16F0065009E1800E055CD8A039
:1018400024EF0CF026EF0CF03CEF0CF015C0D9FFA4
:1018500016C0DAFF7F0EDF6E7F0E1526000E1622F1
:10186000FF0E16C0E3FFFE0E15C0E3FF810E052636
:10187000FF0E062215EF0CF015C0D9FF16C0DAFFD7
:1018800005C0DFFF05501524D96E06501620DA6E0C
:10189000DF6AE552E5521200010E056E84EF0CF08E
:1018A00005506A0DA50EF324D96E000EF420DA6EF1
:1018B000020EDE18D8A45FEF0CF061EF0CF083EF9E
:1018C0000CF005506A0DA70EF324D96E000EF4201B
:1018D000DA6EDF0605506A0DA70EF324D96E000EEE
:1018E000F420DA6EDF50D8A478EF0CF07AEF0CF029
:1018F00083EF0CF005506A0DA50EF324D96E000E8F
:10190000F420DA6EDF6A052A22EEB4F0DE50055CC0
:10191000D8A08DEF0CF08FEF0CF050EF0CF0120010
:10192000E652E652E652E652000E1D6E55EC0EF0FF
:101930003EEC0EF0FC0E01C0E3FF010F02C0E3FF1E
:10194000010E1D6E55EC0EF03EEC0EF0FE0EE12485
:10195000D96EFF0EE220DA6E01C0DEFF02C0DDFFAD
:10196000810E0D6E040E0E6EFC0EE124376EFF0E1E
:10197000E220386E37C00FF038C010F0C0EC09F02C
:10198000960E0D6EBBEC06F094EF0CF0E552E552AE
:10199000E552E5521200FCEC0DF0640E156E050EDA
:1019A000166E880E176E120E186E63EC0BF0650E35
:1019B000156E040E166E500E176E1A0E186E63EC2E
:1019C0000BF0660E156E030E166E200E176E190EB6
:1019D000186E63EC0BF0670E156E020E166EA20EFB
:1019E000176E1A0E186E63EC0BF04BEC0EF0F7EF5F
:1019F0000CF006EF00F01D50D96EDA6ADF6A1D5058
:101A0000D96EDA6A010ED926DF6A1D50D96EDA6AFC
:101A1000040ED9261EC0DFFF1EC025F0E3EC07F040
:101A20001D50D96EDA6A020ED92601C0DEFF02C04F
:101A3000DDFF1D50050F256E000E266EB7EC0DF074
:101A40001D50130F256E1EC026F0B7EC0DF01200CE
:101A5000080EE126000EE222410E0D6E7EEC0EF025
:101A600020EE39F0080E016EF80EDECFE3FFE82815
:101A7000012EFBD7410E0D6E79EC0EF0F80EE3CF80
:101A80000DF0010FE3CF0EF0E5EC0DF0320E0D6E10
:101A9000BBEC06F02CEF0DF0F80EE126FF0EE22273
:101AA0001200E652E652020E1D6E55EC0EF03EECB0
:101AB0000EF0FE0E01C0E3FF010F02C0E3FF600E57
:101AC0000D6E020E0E6EFE0EE124376EFF0EE2204A
:101AD000386E37C00FF038C010F0C0EC09F0FA0EC5
:101AE0000D6EBBEC06F053EF0DF0E552E55212001F
:101AF000000E1D6E55EC0EF00B0E1D6E6DEC0EF013
:101B0000050E1D6E040E1E6E10EC0EF01E6A010E08
:101B10001D6E73EC0EF021EC0EF0410E1D6E5FECAD
:101B20000EF0810E1D6E040E1E6EFBEC0CF0600EAE
:101B30001D6E020E1E6EFBEC0CF0120000EEA2F009
:101B400024EE15F0EE6ADD50D950FCE1DA50FAE1EE
:101B500000EE60F0420EEE6AE806FDE100EE39F0BC
:101B6000160EEE6AE806FDE10001CBEF0CF0265000
:101B7000376E386A2550D96EDA6A37C0DEFF38C052
:101B8000DDFF2550D96EDA6A0C0ED926DF6A2550A2
:101B9000D96EDA6A0D0ED926DF6A1200959683B6E1
:101BA000D4EF0DF0D7EF0DF0010ED8EF0DF0000ED1
:101BB000FF0A386E3846384638468C503818F70BCE
:101BC00038188C6ECFEF0DF012000DC037F00EC03C
:101BD00038F0D89038323732D890383237323750E0
:101BE000BE6E0DC038F0030E3816383ABD503818A6
:101BF000CF0B3818BD6E1200000EE8CFB4F2000E05
:101C0000E8CFB5F2000EE8CFB6F2000E156E010E69
:101C1000166E9C0E176E1B0E186E63EC0BF0120006
:101C20001DC038F0384638463846C0503818C70B03
:101C30003818C06EC0501E18F80B1E18C06EC08E2B
:101C4000120094947C0ECB6EBE6ACF0EBD16CA50A5
:101C5000FC0B0209CA6ECA84BD50F00B0C09BD6EA4
:101C60001200D59AD596D550F80B0609D56ED76ACD
:101C7000800ED66EF28AF294D58E1200C282C2B263
:101C800044EF0EF046EF0EF03FEF0EF0C3CF01F041
:101C9000C4CF02F0120083EC0EF006EC0CF078ECEE
:101CA0000DF031EC0EF0F28E12001DC038F0384607
:101CB0003846C2503818C30B3818C26E12001DC007
:101CC00025F0010E266EB7EC0DF012009CEC0AF028
:101CD00001C0B5F202C0B6F21200C1501D18F00BDF
:101CE0001D18C16E12001DB002D0C29001D0C2807A
:101CF00012000DC015F0BEEC0BF012000DC015F077
:0A1D000060EC05F01200F28C1200F6
:00000001FF
