:0400000006EF00F017
:0C00080001ED04F014EEC5F029EF0EF03D
:1008000000000600E9CF51F0EACF52F0E1CF53F0FB
:10081000E2CF54F0D9CF55F0DACF56F0F3CF57F0FE
:10082000F4CF58F016EE63F001C0E6FF02C0E6FF19
:1008300005C0E6FF37C0E6FF38C0E6FF9EA023EF05
:1008400004F025EF04F089EF04F09E90FE0ECF6EC9
:100850000B0ECE6E414A422A040E425CD8A033EF02
:1008600004F035EF04F037EF04F0416A426A495072
:10087000415C4A504258D8A040EF04F044EF04F0E5
:100880004B6A4B2A45EF04F04B6A8C504B18FE0B19
:100890004B188C6E4750415C48504258D8A053EFDB
:1008A00004F057EF04F04B6A4B2A58EF04F04B6A00
:1008B0004B468C504B18FD0B4B188C6E4550415CD1
:1008C00046504258D8A067EF04F06BEF04F04B6A33
:1008D0004B2A6CEF04F04B6A4B464B468C504B183E
:1008E000FB0B4B188C6E4350415C44504258D8A0CF
:1008F0007CEF04F080EF04F04B6A4B2A81EF04F0A8
:100900004B6A4B464B464B468C504B18F70B4B18DB
:100910008C6EF2A48EEF04F090EF04F0AFEF05F0D0
:10092000F294F29EADEC0CF022EEC3F000EE03F078
:10093000DE50E926DD50EA22EE04D8A4A2EF04F04E
:10094000A4EF04F00EEF05F022EEC3F000EE06F087
:10095000DE50E926DD50EA22E0CFEFFF22EEC3F0C1
:1009600000EE08F0DE50E926DD50EA22D8CFEFFF96
:1009700022EEC3F000EE07F0DE50E926DD50EA2259
:10098000E8CFEFFF22EEC3F000EE69F0DE50E9267B
:10099000DD50EA22EF6AFDEF04F022EEC3F000EE34
:1009A00069F0DE50E926DD50EA22EF50030DF3CF67
:1009B0004BF0F4CF4CF022EEC3F0DECF4DF0DDCFA4
:1009C0004EF04B504D244F6E4C504E20506E090E41
:1009D0004F24D96E000E5020DA6EFDCFDEFFFECF21
:1009E000DEFFFFCFDEFF22EEC3F000EE69F0DE5047
:1009F000E926DD50EA22EF2A0600FC50D8A403EFD6
:100A000005F005EF05F0CDEF04F022EEC3F000EEA7
:100A100003F0DE50E926DD50EA22EF6A0CEC0FF01D
:100A200022EEC3F000EE03F0DE50E926DD50EA22AC
:100A3000EF50D8A41EEF05F020EF05F0AEEF05F063
:100A400022EEC3F000EE06F0DE50E926DD50EA2289
:100A5000EF50E06E22EEC3F000EE08F0DE50E92623
:100A6000DD50EA22EF50D86E22EEC3F000EE07F020
:100A7000DE50E926DD50EA22EF504B6E4B50FC6A07
:100A800022EEC3F000EE69F0DE50E926DD50EA22E6
:100A9000EF50D8A44EEF05F050EF05F064EF05F0ED
:100AA000050022EEC3F000EE01F0DE50E926DD5035
:100AB000EA22EECF4BF0EDCF4CF04BC0FDFF4CC027
:100AC000FEFFFF6AA4EF05F0050022EEC3F000EE82
:100AD00069F0DE50E926DD50EA22EF0622EEC3F08F
:100AE00000EE69F0DE50E926DD50EA22EF50030DFA
:100AF000F3CF4BF0F4CF4CF022EEC3F0DECF4DF04D
:100B0000DDCF4EF04B504D244F6E4C504E20506E6A
:100B1000090E4F24D96E000E5020DA6EDECFFDFF95
:100B2000DECFFEFFDDCFFFFF22EEC3F000EE69F067
:100B3000DE50E926DD50EA22EF50D8A4A2EF05F0FE
:100B4000A4EF05F064EF05F022EEC3F000EE03F031
:100B5000DE50E926DD50EA22010EEF6EF28EE552FC
:100B6000E5CF38F0E5CF37F0E5CF05F0E5CF02F07F
:100B7000E5CF01F058C0F4FF57C0F3FF56C0DAFFCD
:100B800055C0D9FF54C0E2FF53C0E1FF52C0EAFF95
:100B900051C0E9FF1100F29E1550D96EDA6ADE06E7
:100BA000000EDD5A1550D96EDA6A010EDBBEDDEF9C
:100BB00005F0DBEF05F024EF07F022EEC3F015504F
:100BC000E96EEA6A0C0EE926EF50020D1550F32487
:100BD000E96EEA6A020EE926DECFEEFFDDCFEDFF19
:100BE0001550D96EDA6A0C0ED9261550E96EEA6AEC
:100BF0000C0EE926EF50386E010E38241D6E1E6A69
:100C0000000E1E22206A050E1F6E65EC0BF00150CF
:100C1000DF6E22EEC3F000EE03F0DE50E926DD5079
:100C2000EA22EE04D8A417EF06F019EF06F084EFDD
:100C300006F022EEC3F000EE06F0DE50E926DD50AD
:100C4000EA22E0CFEFFF22EEC3F000EE08F0DE5024
:100C5000E926DD50EA22D8CFEFFF22EEC3F000EE06
:100C600007F0DE50E926DD50EA22E8CFEFFF22EE62
:100C7000C3F000EE69F0DE50E926DD50EA22EF6AAB
:100C800072EF06F022EEC3F000EE69F0DE50E926C6
:100C9000DD50EA22EF50030DF3CF37F0F4CF38F0F8
:100CA00022EEC3F0DECF35F0DDCF36F037503524FD
:100CB000336E38503620346E090E3324D96E000E50
:100CC0003420DA6EFDCFDEFFFECFDEFFFFCFDEFF8A
:100CD00022EEC3F000EE69F0DE50E926DD50EA2294
:100CE000EF2A0600FC50D8A478EF06F07AEF06F061
:100CF00042EF06F022EEC3F000EE03F0DE50E926EC
:100D0000DD50EA22030EEF6E0CEC0FF022EEC3F082
:100D100000EE03F0DE50E926DD50EA22EF50D8A4C1
:100D200094EF06F096EF06F024EF07F022EEC3F002
:100D300000EE06F0DE50E926DD50EA22EF50E06ECC
:100D400022EEC3F000EE08F0DE50E926DD50EA2284
:100D5000EF50D86E22EEC3F000EE07F0DE50E92629
:100D6000DD50EA22EF50386E3850FC6A22EEC3F0B4
:100D700000EE69F0DE50E926DD50EA22EF50D8A4FB
:100D8000C4EF06F0C6EF06F0DAEF06F0050022EE3B
:100D9000C3F000EE01F0DE50E926DD50EA22EECF8E
:100DA00037F0EDCF38F037C0FDFF38C0FEFFFF6AE7
:100DB0001AEF07F0050022EEC3F000EE69F0DE50F6
:100DC000E926DD50EA22EF0622EEC3F000EE69F0DC
:100DD000DE50E926DD50EA22EF50030DF3CF37F065
:100DE000F4CF38F022EEC3F0DECF35F0DDCF36F0B1
:100DF00037503524336E38503620346E090E332484
:100E0000D96E000E3420DA6EDECFFDFFDECFFEFF9E
:100E1000DDCFFFFF22EEC3F000EE69F0DE50E926E1
:100E2000DD50EA22EF50D8A418EF07F01AEF07F0D0
:100E3000DAEF06F022EEC3F000EE03F0DE50E92612
:100E4000DD50EA22010EEF6EF28E1200F29E22EECB
:100E5000C3F000EE05F0DE50E926DD50EA220DC0B9
:100E6000EFFF22EEC3F000EE03F0DE50E926DD5086
:100E7000EA22EE04D8A43FEF07F041EF07F0ACEF11
:100E800007F022EEC3F000EE06F0DE50E926DD505A
:100E9000EA22E0CFEFFF22EEC3F000EE08F0DE50D2
:100EA000E926DD50EA22D8CFEFFF22EEC3F000EEB4
:100EB00007F0DE50E926DD50EA22E8CFEFFF22EE10
:100EC000C3F000EE69F0DE50E926DD50EA22EF6A59
:100ED0009AEF07F022EEC3F000EE69F0DE50E9264B
:100EE000DD50EA22EF50030DF3CF37F0F4CF38F0A6
:100EF00022EEC3F0DECF35F0DDCF36F037503524AB
:100F0000336E38503620346E090E3324D96E000EFD
:100F10003420DA6EFDCFDEFFFECFDEFFFFCFDEFF37
:100F200022EEC3F000EE69F0DE50E926DD50EA2241
:100F3000EF2A0600FC50D8A4A0EF07F0A2EF07F0BC
:100F40006AEF07F022EEC3F000EE03F0DE50E92670
:100F5000DD50EA22020EEF6E0CEC0FF022EEC3F031
:100F600000EE03F0DE50E926DD50EA22EF50D8A46F
:100F7000BCEF07F0BEEF07F04CEF08F022EEC3F035
:100F800000EE06F0DE50E926DD50EA22EF50E06E7A
:100F900022EEC3F000EE08F0DE50E926DD50EA2232
:100FA000EF50D86E22EEC3F000EE07F0DE50E926D7
:100FB000DD50EA22EF50386E3850FC6A22EEC3F062
:100FC00000EE69F0DE50E926DD50EA22EF50D8A4A9
:100FD000ECEF07F0EEEF07F002EF08F0050022EE6D
:100FE000C3F000EE01F0DE50E926DD50EA22EECF3C
:100FF00037F0EDCF38F037C0FDFF38C0FEFFFF6A95
:1010000042EF08F0050022EEC3F000EE69F0DE507A
:10101000E926DD50EA22EF0622EEC3F000EE69F089
:10102000DE50E926DD50EA22EF50030DF3CF37F012
:10103000F4CF38F022EEC3F0DECF35F0DDCF36F05E
:1010400037503524336E38503620346E090E332431
:10105000D96E000E3420DA6EDECFFDFFDECFFEFF4C
:10106000DDCFFFFF22EEC3F000EE69F0DE50E9268F
:10107000DD50EA22EF50D8A440EF08F042EF08F02C
:1010800002EF08F022EEC3F000EE03F0DE50E92696
:10109000DD50EA22010EEF6EF28E1200E652E652A9
:1010A000E6527E0E256457EF08F059EF08F05FEF27
:1010B00008F0000E016E000E026E11EF09F0020E34
:1010C000016EFE0E01C0E3FFC50E016EFD0E01C0F4
:1010D000E3FFFD0EE3CF05F0010FE3CF06F005C0FF
:1010E000D9FF06C0DAFFDF50386EFF0E38C0E3FFCD
:1010F000FF0EE124D96EFF0EE220DA6EDF507F0B87
:10110000386E3804076EFE0E06C0E3FFFD0E05C004
:10111000E3FFFF0EE350D8A490EF08F092EF08F041
:1011200094EF08F059EF08F0FF0EE124D96EFF0E9E
:10113000E220DA6EDFBE9FEF08F0A1EF08F0BAEF11
:1011400008F02550075CD8B0A8EF08F0AAEF08F027
:10115000CFEF08F0FD0EE3CF2DF0010FE3CF2EF01F
:1011600015EC09F00150D8A4B8EF08F0BAEF08F078
:1011700069EF08F0FF0EE124D96EFF0EE220DA6E6F
:10118000DF507F0B010DFD0EE124D96EFF0EE22032
:10119000DA6EF350DE26F450DD2269EF08F0FD0E22
:1011A000E3CF05F0010FE3CF06F007502518D8A4D0
:1011B000DCEF08F0DEEF08F0EBEF08F005C0D9FF38
:1011C00006C0DAFFDF8E010E0524016E000E062038
:1011D000026E11EF09F02550810F05C0D9FF06C03E
:1011E000DAFFDF6E05C037F006C038F0010E372495
:1011F000096E000E38200A6E010E2524376E386AFB
:10120000000E382237500526385006222550075C3C
:1012100005C0D9FF06C0DAFFDF6E09C001F00AC0C1
:1012200002F0E552E552E5521200E652E652E6526D
:101230002DC0D9FF2EC0DAFFDF50386E38502D2474
:10124000056E000E2E20066E2DC0D9FF2EC0DAFFCF
:10125000DF50386EFE0E38C0E3FF05C0D9FF06C070
:10126000DAFFDF50386EFD0E38C0E3FFFD0EE350AD
:10127000D8A43DEF09F03FEF09F043EF09F0000E6D
:10128000016EABEF09F0FE0EE124D96EFF0EE220F5
:10129000DA6EDFBE4EEF09F050EF09F03FEF09F0D4
:1012A000FD0EE124D96EFF0EE220DA6EDFAE5BEFB9
:1012B00009F05DEF09F05FEF09F03FEF09F0FE0E76
:1012C000E124D96EFF0EE220DA6EDF507F0B7F0A39
:1012D000D8A46DEF09F06FEF09F071EF09F03FEF5F
:1012E00009F0FD0EE3CF38F0FE0EE3503824376EE0
:1012F000FF0E37C0E3FFFF0EE3CF01F07F0E016466
:1013000084EF09F086EF09F0A2EF09F02DC0D9FFB4
:101310002EC0DAFF7F0EDF6E7F0E2D26000E2E22EE
:10132000FD0EE350010DF3500526F45006222D501A
:10133000055C2DC0D9FF2EC0DAFFDF6E7F0E016E77
:10134000ABEF09F02DC0D9FF2EC0DAFFFF0EE3CFBF
:10135000DFFFDF50016EE552E552E5521200060E46
:10136000E126000EE222810E0D6E040E0E6EFA0EC4
:10137000E124376EFF0EE220386E37C00FF038C020
:1013800010F092EC0AF0600E0D6E020E0E6EFE0E64
:10139000E124376EFF0EE220386E37C00FF038C000
:1013A00010F092EC0AF0A20E0D6E24EC0FF0FF0E7E
:1013B000E3BEEAEF09F0FF0EE3500AE1FE0EE3CFD1
:1013C00001F0C80E015ED8B0E8EF09F0EAEF09F0CD
:1013D000F8EF09F03A6A640E396E3C6A640E3B6EAF
:1013E0003E6A640E3D6E406A640E3F6E12EF0AF074
:1013F000FC0EE124D96EFF0EE220DA6EDECF05F09E
:10140000DDCF06F005C039F006C03AF005C03BF06C
:1014100006C03CF005C03DF006C03EF005C03FF000
:1014200006C040F0A20E0D6E1FEC0FF0640E0D6EA4
:1014300026EC07F0B3EF09F0FA0EE126FF0EE222E8
:101440001200E652E652E652FF0E10C0E3FFFE0E17
:101450000FC0E3FF056A85EF0AF0F29EFD0E05C09E
:10146000E3FF0D50130F156ECBEC05F0FD0EE3CF2F
:1014700038F0FE0EE3CF35F0010FE3CF36F03850F1
:101480003524D96E000E3620DA6E0D50E96EEA6A08
:10149000010EE926EF50386E0D50E96EEA6A020E31
:1014A000E926EECF35F0EDCF36F038503524E96E31
:1014B000000E3620EA6EDFCFEFFF0D50D96EDA6AEC
:1014C000010ED9260D50E96EEA6A010EE926EF50A9
:1014D000386E010E38241D6E1E6A000E1E220D503D
:1014E000E96EEA6A040EE926EF501F6E206A65EC89
:1014F0000BF00150DF6E0D50050F156E1FEC0CF058
:10150000F28EFD0EE3CF05F0052A0E50055CD8A043
:101510008CEF0AF08EEF0AF02DEF0AF0E552E5525B
:10152000E5521200E652E652E652FF0E10C0E3FF0B
:10153000FE0E0FC0E3FF056AF0EF0AF0F29EFD0E0B
:1015400005C0E3FF0D50050F156ECBEC05F00D50F7
:10155000D96EDA6ADF50386E0D50D96EDA6A020E33
:10156000D926DECF35F0DDCF36F038503524D96EB0
:10157000000E3620DA6EFD0EE3CF38F0FE0EE3CF1C
:1015800035F0010FE3CF36F038503524E96E000E08
:101590003620EA6EDFCFEFFF0D50D96EDA6A0D50BC
:1015A000E96EEA6AEF50386E010E38241D6E1E6A2D
:1015B000000E1E220D50E96EEA6A040EE926EF5075
:1015C0001F6E206A65EC0BF00150DF6E0D50130F9B
:1015D000156E1FEC0CF0F28EFD0EE3CF05F0052A20
:1015E0000E50055CD8A0F7EF0AF0F9EF0AF09EEF75
:1015F0000AF0E552E552E5521200E652E652E65292
:10160000000E016EFE0E01C0E3FFB00E016EFD0E76
:1016100001C0E3FFFF0EE36A010E056E50EF0BF011
:1016200005506A0DB30EF324D96E000EF420DA6E65
:10163000DF50D8A41EEF0BF020EF0BF04FEF0BF0B4
:1016400005506A0DB40EF324D96E000EF420DA6E44
:10165000FF0EE3CF01F0DE50015CD8B032EF0BF0AB
:1016600034EF0BF04FEF0BF005506A0DB40EF3247E
:10167000D96E000EF420DA6EDF50386EFF0E38C0DF
:10168000E3FF05506A0DB00EF324376E000EF42010
:10169000386EFE0E38C0E3FFFD0E37C0E3FF052AAB
:1016A00022EEC2F0DE50055CD8A059EF0BF05BEFE4
:1016B0000BF010EF0BF0FD0EE3CF01F0010FE3CFC5
:1016C00002F0E552E552E5521200E652056A1EBEEE
:1016D0006EEF0BF06CEF0BF074EF0BF01D6C1E1E39
:1016E000D8B01E2A010E056E20BE7BEF0BF079EFFD
:1016F0000BF07FEF0BF01F6C201ED8B0202AFF0EDE
:1017000005C0E3FF1F502010D8B489EF0BF08BEF1A
:101710000BF0AFEF0BF0010E056E93EF0BF0D890CE
:101720001F362036052A20AE98EF0BF09AEF0BF00B
:101730008FEF0BF01F501D5C20501E58D8A0A3EF58
:101740000BF0A5EF0BF0A9EF0BF01F501D5E205022
:101750001E5AD89020321F32052E9AEF0BF0FF0E42
:10176000E3CF05F00550D8B4B8EF0BF0BAEF0BF0AB
:10177000BEEF0BF01D6C1E1ED8B01E2A1DC001F05E
:101780001EC002F0E55212006A0EE126000EE222AF
:10179000960E15C0E3FF970EE124D96EFF0EE220EE
:1017A000DA6E17C0DEFF18C0DDFF9A0EE124D96E95
:1017B000FF0EE220DA6E16C0DFFF990EE124D96E2B
:1017C000FF0EE220DA6EDF6A9C0EE124D96EFF0E76
:1017D000E220DA6EDF6A9E0EE124D96EFF0EE2206F
:1017E000DA6EDF6A9D0EE124D96EFF0EE220DA6E1A
:1017F000DF6AFF0EE124D96EFF0EE220DA6EDF6AA7
:10180000960EE124D96EFF0EE220DA6E02EEC2F0EF
:10181000EF506A0DB00EF324E96E000EF420EA6E6C
:10182000690EDBCFEBFFE806FCE2C2C2E8FF010F66
:10183000E8CFC2F2960EE126FF0EE2221200F29EDF
:101840001550D96EDA6ADE2A000EDD221550D96EE7
:10185000DA6A010EDBBE38EF0CF0010EDB5006E158
:10186000DE04D8B036EF0CF038EF0CF065EF0CF07A
:101870001550D96EDA6A0D0ED926DF50020D1550BB
:10188000F324D96EDA6A020ED92600EE03F0DE5098
:10189000E926DD50EA22EF6A1550D96EDA6A0D0E9C
:1018A000D9261550E96EEA6A0D0EE926EF50386E1A
:1018B000010E38241D6E1E6A000E1E22206A050EBF
:1018C0001F6E65EC0BF00150DF6EF28E1200E652D7
:1018D000E652020E016EFF0E01C0E3FFC50E016E5F
:1018E000FE0E01C0E3FF010E066E0568FE0EE3CF9B
:1018F00015F0010FE3CF16F0065009E1800E055CEC
:10190000D8A085EF0CF087EF0CF09DEF0CF015C020
:10191000D9FF16C0DAFF7F0EDF6E7F0E1526000E90
:101920001622FF0E16C0E3FFFE0E15C0E3FF810E68
:101930000526FF0E062276EF0CF015C0D9FF16C063
:10194000DAFF05C0DFFF05501524D96E06501620BA
:10195000DA6EDF6AE552E5521200010E056EE5EF20
:101960000CF005506A0DB30EF324D96E000EF4206E
:10197000DA6E020EDE18D8A4C0EF0CF0C2EF0CF045
:10198000E4EF0CF005506A0DB50EF324D96E000E8D
:10199000F420DA6EDF0605506A0DB50EF324D96E19
:1019A000000EF420DA6EDF50D8A4D9EF0CF0DBEF94
:1019B0000CF0E4EF0CF005506A0DB30EF324D96E71
:1019C000000EF420DA6EDF6A052A22EEC2F0DE5045
:1019D000055CD8A0EEEF0CF0F0EF0CF0B1EF0CF0DE
:1019E0001200E652E652E652E652000E1D6EFBEC85
:1019F0000EF0E4EC0EF0FC0E01C0E3FF010F02C09C
:101A0000E3FF010E1D6EFBEC0EF0E4EC0EF0FE0E9B
:101A1000E124D96EFF0EE220DA6E01C0DEFF02C0C3
:101A2000DDFF810E0D6E040E0E6EFC0EE124376E8E
:101A3000FF0EE220386E37C00FF038C010F021ECF6
:101A40000AF0960E0D6E26EC07F0F5EF0CF0E5525D
:101A5000E552E552E55212000F0EC16E000E1D6EEA
:101A6000FBEC0EF00B0E1D6E13EC0FF0050E1D6E51
:101A7000040E1E6E82EC0EF01E6A010E1D6E19EC35
:101A80000FF0E8EC0DF0A20E1D6E05EC0FF0810ECC
:101A90001D6E040E1E6E94EC0DF0600E1D6E020E97
:101AA0001E6E94EC0DF0020E3A6E000E396E020EB0
:101AB0003C6E000E3B6E020E3E6E000E3D6E020E40
:101AC000406E000E3F6E12006EEC0EF0640E156E4E
:101AD000050E166E5E0E176E130E186EC4EC0BF02C
:101AE000650E156E040E166E140E176E1C0E186E13
:101AF000C4EC0BF0660E156E030E166EE20E176E3A
:101B0000190E186EC4EC0BF0670E156E020E166EF1
:101B1000820E176E1B0E186EC4EC0BF0F1EC0EF07B
:101B200090EF0DF006EF00F01D50D96EDA6ADF6A13
:101B30001D50D96EDA6A010ED926DF6A1D50D96EA2
:101B4000DA6A040ED9261EC0DFFF1EC025F04EEC57
:101B500008F01D50D96EDA6A020ED92601C0DEFFE8
:101B600002C0DDFF1D50050F256E000E266E42ECF3
:101B70000EF01D50130F256E1EC026F042EC0EF025
:101B80001200E652E652020E1D6EFBEC0EF0E4EC83
:101B90000EF0FE0E01C0E3FF010F02C0E3FF600E76
:101BA0000D6E020E0E6EFE0EE124376EFF0EE22069
:101BB000386E37C00FF038C010F021EC0AF0FA0E82
:101BC0000D6E26EC07F0C3EF0DF0E552E552120062
:101BD00095909592959495968C908C928C948C96E9
:101BE000020E4A6E000E496E020E486E000E476EDF
:101BF000020E466E000E456E020E446E000E436EDF
:101C0000CD92CF0ECD16CD8ECE6ACF6A9D809E909E
:101C1000CD80120039C00DF03AC00EF0C6EC0EF0C7
:101C20003BC00DF03CC00EF0B5EC0EF03DC00DF029
:101C30003EC00EF0A4EC0EF03FC00DF040C00EF020
:101C400093EC0EF0640E0D6E26EC07F00AEF0EF02A
:101C5000120000EEB0F024EE15F0EE6ADD50D9501F
:101C6000FCE1DA50FAE100EE60F0500EEE6AE806B0
:101C7000FDE100EE39F0120EEE6AE806FDE100012A
:101C800064EF0DF02650376E386A2550D96EDA6A47
:101C900037C0DEFF38C0DDFF2550D96EDA6A0C0E82
:101CA000D926DF6A2550D96EDA6A0D0ED926DF6A89
:101CB0001200959883B85FEF0EF062EF0EF0010E00
:101CC00063EF0EF0000EFF0A386E383A8C50381869
:101CD000EF0B38188C6E5AEF0EF01200000EE8CFA2
:101CE000C2F2000EE8CFC3F2000EE8CFC4F2000E3D
:101CF000156E010E166EB20E176E1C0E186EC4EC29
:101D00000BF012001DC038F0384638463846C05037
:101D10003818C70B3818C06EC0501E18F80B1E18A4
:101D2000C06EC08E1200040E0E5CD8A09AEF0EF0AA
:101D30009CEF0EF09FEF0EF0030E0E6E0D680DC0BF
:101D400043F00EC044F01200040E0E5CD8A0ABEFBE
:101D50000EF0ADEF0EF0B0EF0EF0030E0E6E0D684C
:101D60000DC045F00EC046F01200040E0E5CD8A067
:101D7000BCEF0EF0BEEF0EF0C1EF0EF0030E0E6ED4
:101D80000D680DC047F00EC048F01200040E0E5C46
:101D9000D8A0CDEF0EF0CFEF0EF0D2EF0EF0030E85
:101DA0000E6E0D680DC049F00EC04AF01200D59AB3
:101DB000D596D550F80B0609D56ED76A800ED66E2B
:101DC000F28AF294D58E1200C282C2B2EAEF0EF00D
:101DD000ECEF0EF0E5EF0EF0C3CF01F0C4CF02F050
:101DE000120029EC0FF067EC0CF02CEC0DF0D7ECA6
:101DF0000EF0F28E12001DC038F038463846C25040
:101E00003818C30B3818C26E12001DC025F0010E21
:101E1000266E42EC0EF01200FDEC0AF001C0C3F297
:101E200002C0C4F21200C1501D18F00B1D18C16E83
:101E300012001DB002D0C29001D0C28012000DC0AD
:101E400015F01FEC0CF012000DC015F0CBEC05F0F6
:061E50001200F28C1200EA
:00000001FF
